:020000040800F2
:10000000600C00206D0100087501000877010008F0
:10001000790100087B0100087D0100080000000054
:100020000000000000000000000000007F01000848
:10003000810100080000000083010008850100081C
:100040008701000887010008870100088701000870
:100050008701000887010008870100088701000860
:100060008701000887010008870100088701000850
:100070008701000887010008870100088701000840
:100080008701000887010008870100088701000830
:100090008701000887010008870100088701000820
:1000A0008701000887010008870100088701000810
:1000B0008701000887010008870100088701000800
:1000C00087010008870100088701000887010008F0
:1000D00087010008870100088701000887010008E0
:1000E00087010008870100088701000800F002F876
:1000F00000F02CF80AA090E8000C82448344AAF196
:100100000107DA4501D100F021F8AFF2090EBAE893
:100110000F0013F0010F18BFFB1A43F0010318473B
:100120001C0300002C0300000023002400250026EF
:10013000103A28BF78C1FBD8520728BF30C148BF4A
:100140000B6070471FB51FBD10B510BD00F063F800
:100150001146FFF7F7FF00F013F900F081F803B440
:10016000FFF7F2FF03BC00F089F800000948804760
:1001700009480047FEE7FEE7FEE7FEE7FEE7FEE789
:10018000FEE7FEE7FEE7FEE704480549054A064BA1
:10019000704700007D030008ED00000860000020AB
:1001A000600C0020600800206008002010B5203A94
:1001B000C0F00B80B1E81850203AA0E81850B1E820
:1001C0001850A0E81850BFF4F5AF5FEA027C24BFD6
:1001D000B1E81850A0E8185044BF18C918C0BDE8CD
:1001E00010405FEA827C24BF51F8043B40F8043B96
:1001F00008BF7047D20728BF31F8023B48BF11F84B
:10020000012B28BF20F8023B48BF00F8012B7047A4
:10021000704770477047754600F02CF8AE460500F1
:100220006946534620F00700854618B020B5FFF711
:10023000ABFFBDE820404FF000064FF000074FF045
:1002400000084FF0000B21F00701AC46ACE8C009F4
:10025000ACE8C009ACE8C009ACE8C0098D467047FD
:1002600010B50446AFF300802046BDE81040FFF70C
:1002700076BF0000004870470000002001491820A8
:10028000ABBEFEE726000200704770B5054600F0E1
:100290002BF84FF47A71B0FBF1F000210024401EDE
:1002A0004FF0E022052607E0146150619461166169
:1002B0001369DB03FCD5491CA942F5D31461946191
:1002C00070BD30B5082901D2890002E0001D08394F
:1002D000890004680F258D40AC4343EA82028A40BE
:1002E0002243026030BD000000B589B020221349CE
:1002F00001A8FFF75BFF124840681249C0F3810272
:10030000012A11D0022A0FD1C0F383420F2A07D04D
:10031000921C030CDB0705D0C0F34043D94002E038
:100320001022F6E70849514301AAC0F3031032F83E
:10033000100009B0B1FBF0F000BD00001C04000883
:100340000010024000127A0000093D0001228A409C
:100350004261704702494FF4005008617047000045
:100360000010014001228A400261704702494FF4A7
:1003700000504861704700000010014070470000C5
:100380002248816941F01C018161214F0022032331
:1003900011463846FFF795FF1E4E002203231146F3
:1003A0003046FFF78EFF022300220D211A48FFF787
:1003B00088FF00213846FFF7C9FF00213046FFF7CC
:1003C000C5FFFFF7C7FF4FF47A753C460021204672
:1003D000FFF7C8FF2846FFF758FF00212046FFF728
:1003E000B5FF344600212046FFF7BCFF2846FFF743
:1003F0004CFF00212046FFF7A9FFFFF7B7FF284673
:10040000FFF743FFFFF7A6FFDFE700000010024001
:1004100000080140000C01400010014001000100F3
:1004200001000100010001000100010002000400C0
:100430000800100040008000000100024C04000889
:0C04400000000020600C000028010008F3
:04000005080000ED02
:00000001FF
